{
  "transactions": [
    {
      "hash": "0x4d2864af3ae87a35f73d691ab4ea2ee6dc8b55816a13c728bc051cd1fe38924b",
      "transactionType": "CALL",
      "contractName": "Delivery",
      "contractAddress": "0x7700D8f23a188b57fBce4F1b111B9235F6B6BB60",
      "function": "setWraper(address)",
      "arguments": [
        "0x0e168f32Ab89057180F5BdCBf1ef6acA8fD19641"
      ],
      "transaction": {
        "type": "0x02",
        "from": "0xff870b79877d1e7f5b01148f49c799e988c4f48c",
        "to": "0x7700d8f23a188b57fbce4f1b111b9235f6b6bb60",
        "gas": "0x15b61",
        "value": "0x0",
        "data": "0x18ed43160000000000000000000000000e168f32ab89057180f5bdcbf1ef6aca8fd19641",
        "nonce": "0x14",
        "accessList": []
      },
      "additionalContracts": [],
      "isFixedGasLimit": false
    },
    {
      "hash": "0xd176aff6a437d23d8756fa1d03123bee10c99b52512876bed6e666899fe0da17",
      "transactionType": "CALL",
      "contractName": "Delivery",
      "contractAddress": "0x7700D8f23a188b57fBce4F1b111B9235F6B6BB60",
      "function": "addRemoteAddress(uint16,address)",
      "arguments": [
        "10161",
        "0xe545850785CEB4dF25D90A2CD9310F73b337B525"
      ],
      "transaction": {
        "type": "0x02",
        "from": "0xff870b79877d1e7f5b01148f49c799e988c4f48c",
        "to": "0x7700d8f23a188b57fbce4f1b111b9235f6b6bb60",
        "gas": "0x130c3",
        "value": "0x0",
        "data": "0x0807178800000000000000000000000000000000000000000000000000000000000027b1000000000000000000000000e545850785ceb4df25d90a2cd9310f73b337b525",
        "nonce": "0x15",
        "accessList": []
      },
      "additionalContracts": [],
      "isFixedGasLimit": false
    },
    {
      "hash": "0x6a0f66bc1f1b5f8b28f6c0043cdb8aacd3d3695ac120f70e3817d5eff42ebd5c",
      "transactionType": "CALL",
      "contractName": "Delivery",
      "contractAddress": "0x7700D8f23a188b57fBce4F1b111B9235F6B6BB60",
      "function": "addRemoteAddress(uint16,address)",
      "arguments": [
        "10109",
        "0xB6012760CDd218A0DEF4400fdEEfFB9a0aC29dcc"
      ],
      "transaction": {
        "type": "0x02",
        "from": "0xff870b79877d1e7f5b01148f49c799e988c4f48c",
        "to": "0x7700d8f23a188b57fbce4f1b111b9235f6b6bb60",
        "gas": "0x130c3",
        "value": "0x0",
        "data": "0x08071788000000000000000000000000000000000000000000000000000000000000277d000000000000000000000000b6012760cdd218a0def4400fdeeffb9a0ac29dcc",
        "nonce": "0x16",
        "accessList": []
      },
      "additionalContracts": [],
      "isFixedGasLimit": false
    }
  ],
  "receipts": [
    {
      "transactionHash": "0x4d2864af3ae87a35f73d691ab4ea2ee6dc8b55816a13c728bc051cd1fe38924b",
      "transactionIndex": "0x1",
      "blockHash": "0xaf74b57fe931b3cb055a9cb4560b22d33704446c8f91a786df0cae2db6577abe",
      "blockNumber": "0x357d673",
      "from": "0xFF870b79877d1e7f5b01148F49C799E988c4F48C",
      "to": "0x7700D8f23a188b57fBce4F1b111B9235F6B6BB60",
      "cumulativeGasUsed": "0x10b37",
      "gasUsed": "0x10b37",
      "contractAddress": null,
      "logs": [],
      "status": "0x1",
      "logsBloom": "0x00000000000000000000000000000000000000000000000000000000000000000000000000000000000000000000000000000000000000000000000000000000000000000000000000000000000000000000000000000000000000000000000000000000000000000000000000000000000000000000000000000000000000000000000000000000000000000000000000000000000000000000000000000000000000000000000000000000000000000000000000000000000000000000000000000000000000000000000000000000000000000000000000000000000000000000000000000000000000000000000000000000000000000000000000000000",
      "type": "0x2",
      "effectiveGasPrice": "0x5f5e100"
    },
    {
      "transactionHash": "0xd176aff6a437d23d8756fa1d03123bee10c99b52512876bed6e666899fe0da17",
      "transactionIndex": "0x1",
      "blockHash": "0x5c9ec39fb6e569ae5e26604df57e7ec83aa7b8c015c0f11103c3e9d9d1aca96e",
      "blockNumber": "0x357d684",
      "from": "0xFF870b79877d1e7f5b01148F49C799E988c4F48C",
      "to": "0x7700D8f23a188b57fBce4F1b111B9235F6B6BB60",
      "cumulativeGasUsed": "0xea6f",
      "gasUsed": "0xea6f",
      "contractAddress": null,
      "logs": [],
      "status": "0x1",
      "logsBloom": "0x00000000000000000000000000000000000000000000000000000000000000000000000000000000000000000000000000000000000000000000000000000000000000000000000000000000000000000000000000000000000000000000000000000000000000000000000000000000000000000000000000000000000000000000000000000000000000000000000000000000000000000000000000000000000000000000000000000000000000000000000000000000000000000000000000000000000000000000000000000000000000000000000000000000000000000000000000000000000000000000000000000000000000000000000000000000",
      "type": "0x2",
      "effectiveGasPrice": "0x5f5e100"
    },
    {
      "transactionHash": "0x6a0f66bc1f1b5f8b28f6c0043cdb8aacd3d3695ac120f70e3817d5eff42ebd5c",
      "transactionIndex": "0x1",
      "blockHash": "0x8ad33e0ce34bb862b215e3ead1fc01fb785a8b3f998cdb6856dcfd5a24da4232",
      "blockNumber": "0x357d692",
      "from": "0xFF870b79877d1e7f5b01148F49C799E988c4F48C",
      "to": "0x7700D8f23a188b57fBce4F1b111B9235F6B6BB60",
      "cumulativeGasUsed": "0xea6f",
      "gasUsed": "0xea6f",
      "contractAddress": null,
      "logs": [],
      "status": "0x1",
      "logsBloom": "0x00000000000000000000000000000000000000000000000000000000000000000000000000000000000000000000000000000000000000000000000000000000000000000000000000000000000000000000000000000000000000000000000000000000000000000000000000000000000000000000000000000000000000000000000000000000000000000000000000000000000000000000000000000000000000000000000000000000000000000000000000000000000000000000000000000000000000000000000000000000000000000000000000000000000000000000000000000000000000000000000000000000000000000000000000000000",
      "type": "0x2",
      "effectiveGasPrice": "0x5f5e100"
    }
  ],
  "libraries": [],
  "pending": [],
  "returns": {},
  "timestamp": 1700497612,
  "chain": 421613,
  "multi": false,
  "commit": "e5da704"
}