{
  "transactions": [
    {
      "hash": null,
      "transactionType": "CALL",
      "contractName": "Delivery",
      "contractAddress": "0xe545850785CEB4dF25D90A2CD9310F73b337B525",
      "function": "setWraper(address)",
      "arguments": [
        "0x3d2e9a7c8935C9BDBf703262636132e55D567CD0"
      ],
      "transaction": {
        "type": "0x02",
        "from": "0xff870b79877d1e7f5b01148f49c799e988c4f48c",
        "to": "0xe545850785ceb4df25d90a2cd9310f73b337b525",
        "gas": "0x17116",
        "value": "0x0",
        "data": "0x18ed43160000000000000000000000003d2e9a7c8935c9bdbf703262636132e55d567cd0",
        "nonce": "0x3e",
        "accessList": []
      },
      "additionalContracts": [],
      "isFixedGasLimit": false
    },
    {
      "hash": null,
      "transactionType": "CALL",
      "contractName": "Delivery",
      "contractAddress": "0xe545850785CEB4dF25D90A2CD9310F73b337B525",
      "function": "addRemoteAddress(uint16,address)",
      "arguments": [
        "10143",
        "0x7700D8f23a188b57fBce4F1b111B9235F6B6BB60"
      ],
      "transaction": {
        "type": "0x02",
        "from": "0xff870b79877d1e7f5b01148f49c799e988c4f48c",
        "to": "0xe545850785ceb4df25d90a2cd9310f73b337b525",
        "gas": "0x156c9",
        "value": "0x0",
        "data": "0x08071788000000000000000000000000000000000000000000000000000000000000279f0000000000000000000000007700d8f23a188b57fbce4f1b111b9235f6b6bb60",
        "nonce": "0x3f",
        "accessList": []
      },
      "additionalContracts": [],
      "isFixedGasLimit": false
    },
    {
      "hash": null,
      "transactionType": "CALL",
      "contractName": "Delivery",
      "contractAddress": "0xe545850785CEB4dF25D90A2CD9310F73b337B525",
      "function": "addRemoteAddress(uint16,address)",
      "arguments": [
        "10109",
        "0xB6012760CDd218A0DEF4400fdEEfFB9a0aC29dcc"
      ],
      "transaction": {
        "type": "0x02",
        "from": "0xff870b79877d1e7f5b01148f49c799e988c4f48c",
        "to": "0xe545850785ceb4df25d90a2cd9310f73b337b525",
        "gas": "0x143ce",
        "value": "0x0",
        "data": "0x08071788000000000000000000000000000000000000000000000000000000000000277d000000000000000000000000b6012760cdd218a0def4400fdeeffb9a0ac29dcc",
        "nonce": "0x40",
        "accessList": []
      },
      "additionalContracts": [],
      "isFixedGasLimit": false
    }
  ],
  "receipts": [],
  "libraries": [],
  "pending": [],
  "returns": {},
  "timestamp": 1700497443,
  "chain": 11155111,
  "multi": false,
  "commit": "e5da704"
}