{
  "transactions": [
    {
      "hash": "0xb548c63786f0bfe31b4ef0daeff259a84cd86874381e91a1fd1fcc1f9cf72061",
      "transactionType": "CALL",
      "contractName": "Delivery",
      "contractAddress": "0xB6012760CDd218A0DEF4400fdEEfFB9a0aC29dcc",
      "function": "setWraper(address)",
      "arguments": [
        "0x7C8F1949CBB1EaEC229d6436325DF833DCbd3B49"
      ],
      "transaction": {
        "type": "0x02",
        "from": "0xff870b79877d1e7f5b01148f49c799e988c4f48c",
        "to": "0xb6012760cdd218a0def4400fdeeffb9a0ac29dcc",
        "gas": "0x17116",
        "value": "0x0",
        "data": "0x18ed43160000000000000000000000007c8f1949cbb1eaec229d6436325df833dcbd3b49",
        "nonce": "0x11",
        "accessList": []
      },
      "additionalContracts": [],
      "isFixedGasLimit": false
    },
    {
      "hash": "0xfe5c6168ba5bf220dbe782790c6946b47236a826ca52e8181011014ea5792ab0",
      "transactionType": "CALL",
      "contractName": "Delivery",
      "contractAddress": "0xB6012760CDd218A0DEF4400fdEEfFB9a0aC29dcc",
      "function": "addRemoteAddress(uint16,address)",
      "arguments": [
        "10161",
        "0xe545850785CEB4dF25D90A2CD9310F73b337B525"
      ],
      "transaction": {
        "type": "0x02",
        "from": "0xff870b79877d1e7f5b01148f49c799e988c4f48c",
        "to": "0xb6012760cdd218a0def4400fdeeffb9a0ac29dcc",
        "gas": "0x143ce",
        "value": "0x0",
        "data": "0x0807178800000000000000000000000000000000000000000000000000000000000027b1000000000000000000000000e545850785ceb4df25d90a2cd9310f73b337b525",
        "nonce": "0x12",
        "accessList": []
      },
      "additionalContracts": [],
      "isFixedGasLimit": false
    },
    {
      "hash": "0x71050c2eb2c8c36da9ccd5353eb4220479952b96dc2bc4dd208106d622ee7e58",
      "transactionType": "CALL",
      "contractName": "Delivery",
      "contractAddress": "0xB6012760CDd218A0DEF4400fdEEfFB9a0aC29dcc",
      "function": "addRemoteAddress(uint16,address)",
      "arguments": [
        "10143",
        "0x7700D8f23a188b57fBce4F1b111B9235F6B6BB60"
      ],
      "transaction": {
        "type": "0x02",
        "from": "0xff870b79877d1e7f5b01148f49c799e988c4f48c",
        "to": "0xb6012760cdd218a0def4400fdeeffb9a0ac29dcc",
        "gas": "0x156c9",
        "value": "0x0",
        "data": "0x08071788000000000000000000000000000000000000000000000000000000000000279f0000000000000000000000007700d8f23a188b57fbce4f1b111b9235f6b6bb60",
        "nonce": "0x13",
        "accessList": []
      },
      "additionalContracts": [],
      "isFixedGasLimit": false
    }
  ],
  "receipts": [],
  "libraries": [],
  "pending": [
    "0xb548c63786f0bfe31b4ef0daeff259a84cd86874381e91a1fd1fcc1f9cf72061",
    "0xfe5c6168ba5bf220dbe782790c6946b47236a826ca52e8181011014ea5792ab0",
    "0x71050c2eb2c8c36da9ccd5353eb4220479952b96dc2bc4dd208106d622ee7e58"
  ],
  "returns": {},
  "timestamp": 1700497633,
  "chain": 80001,
  "multi": false,
  "commit": "e5da704"
}